{
  "contractName": "MetaCoin",
  "abi": [
    {
      "constant": true,
      "inputs": [
        {
          "name": "",
          "type": "address"
        }
      ],
      "name": "balances",
      "outputs": [
        {
          "name": "",
          "type": "uint256"
        }
      ],
      "payable": false,
      "stateMutability": "view",
      "type": "function"
    },
    {
      "inputs": [],
      "payable": true,
      "stateMutability": "payable",
      "type": "constructor"
    },
    {
      "payable": true,
      "stateMutability": "payable",
      "type": "fallback"
    },
    {
      "constant": false,
      "inputs": [
        {
          "name": "alpha",
          "type": "address"
        },
        {
          "name": "beta",
          "type": "address"
        }
      ],
      "name": "sendSplits",
      "outputs": [],
      "payable": true,
      "stateMutability": "payable",
      "type": "function"
    }
  ],
  "bytecode": "0x608060405261043f806100136000396000f3fe6080604052600436106100295760003560e01c806327e235e314610077578063e153433b146100dc575b346000803373ffffffffffffffffffffffffffffffffffffffff1673ffffffffffffffffffffffffffffffffffffffff16815260200190815260200160002060008282540192505081905550005b34801561008357600080fd5b506100c66004803603602081101561009a57600080fd5b81019080803573ffffffffffffffffffffffffffffffffffffffff169060200190929190505050610140565b6040518082815260200191505060405180910390f35b61013e600480360360408110156100f257600080fd5b81019080803573ffffffffffffffffffffffffffffffffffffffff169060200190929190803573ffffffffffffffffffffffffffffffffffffffff169060200190929190505050610158565b005b60006020528060005260406000206000915090505481565b60008060003373ffffffffffffffffffffffffffffffffffffffff1673ffffffffffffffffffffffffffffffffffffffff16815260200190815260200160002054905060008111610211576040517f08c379a00000000000000000000000000000000000000000000000000000000081526004018080602001828103825260108152602001807f5a65726f20457468657220436865636b0000000000000000000000000000000081525060200191505060405180910390fd5b600073ffffffffffffffffffffffffffffffffffffffff168373ffffffffffffffffffffffffffffffffffffffff161415801561027b5750600073ffffffffffffffffffffffffffffffffffffffff168273ffffffffffffffffffffffffffffffffffffffff1614155b6102ed576040517f08c379a00000000000000000000000000000000000000000000000000000000081526004018080602001828103825260138152602001807f56616c6964204164647265737320436865636b0000000000000000000000000081525060200191505060405180910390fd5b8273ffffffffffffffffffffffffffffffffffffffff166108fc61031b60028461038490919063ffffffff16565b9081150290604051600060405180830381858888f19350505050508173ffffffffffffffffffffffffffffffffffffffff166108fc61036460028461038490919063ffffffff16565b9081150290604051600060405180830381858888f1935050505050505050565b60008082116103fb576040517f08c379a000000000000000000000000000000000000000000000000000000000815260040180806020018281038252601a8152602001807f536166654d6174683a206469766973696f6e206279207a65726f00000000000081525060200191505060405180910390fd5b600082848161040657fe5b049050809150509291505056fea165627a7a7230582078946630dc328c07739fa14d90f0cd85ff8510522f1347e98f03016573cb768a0029",
  "source": "pragma solidity >=0.4.25 <0.6.0;\r\n\r\nimport \"./ConvertLib.sol\";\r\nimport \"./SafeMath.sol\";\r\n// This is just a simple example of a coin-like contract.\r\n// It is not standards compatible and cannot be expected to talk to other\r\n// coin/token contracts. If you want to create a standards-compliant\r\n// token, see: https://github.com/ConsenSys/Tokens. Cheers!\r\n\r\ncontract MetaCoin {\r\n        using SafeMath for uint256;\r\n       \tmapping (address => uint) public balances;\r\n\t\r\n\r\n\t\tconstructor() public payable{\r\n\t\t\t\r\n\t\t}\r\n\t\r\n\r\nfunction() external payable {\r\n\r\n        // Track that calling account deposited ether\r\n        balances[msg.sender] += msg.value;\r\n    }\r\n\r\nfunction sendSplits(address payable alpha,address payable beta) external payable {\r\n\r\n       uint256 amount=balances[msg.sender];\r\n       require(amount > 0, \"Zero Ether Check\");\r\n       require(alpha!= address(0x0) && beta!= address(0x0), \"Valid Address Check\");\r\n  \t   alpha.send(amount.div(2));\r\n  \t   beta.send(amount.div(2));\r\n\t}\r\n\r\n\r\n\r\n}",
  "sourcePath": "/home/vagrant/DAPPS/Splitter/contracts/MetaCoin.sol",
  "compiler": {
    "name": "solc",
    "version": "0.5.8+commit.23d335f2.Emscripten.clang"
  },
  "schemaVersion": "3.0.10",
  "updatedAt": "2019-08-06T19:30:40.336Z",
  "devdoc": {
    "methods": {}
  },
  "userdoc": {
    "methods": {}
  }
}